:1000000086EF05F00000000000EF00F000000000A7
:100010000000000000000000F3D7FFFF0000000018
:100020000000000000001200240E0C6EB50E0D6ED4
:100030000D2EFED70C2EFCD7000000001200530E30
:100040000D6E0D2EFED7120000017ABF02D0839EE6
:1000500001D0838E7ABD02D0839C01D0838C7ABB81
:1000600002D0839A01D0838A7AB902D0839801D0D2
:1000700083885EB002D0838201D083928386CEDFF4
:1000800083967AB702D0839E01D0838E7AB502D050
:10009000839C01D0838C7AB302D0839A01D0838A67
:1000A0007AB102D0839801D083885EB002D0838277
:1000B00001D083928386B2DF83965EA002D0B4DF44
:1000C00001D0BDDF12000134083609360450085E45
:1000D0000550D8A0053C095E003601360F0E0C6EA7
:1000E000013408360936045000A006D0085E0550D9
:1000F000D8A0053C095E05D008260550D8B0053CBF
:100100000926003601360C2EEBD700B006D004507D
:1001100008260550D8B0053C0926000012005E9064
:1001200076C07AF091DF5E80120076C0E9FF77C07A
:10013000EAFFEE5211E076C0E9FF77C0EAFF78C02F
:10014000D9FF79C0DAFFEE50DE1806E10001764BE8
:10015000772B784B792BE9D776C0E9FF77C0EAFF98
:1001600078C0D9FF79C0DAFFDE50EE5C006E016A1C
:10017000000E015A120094908290750E0C6EE10EE2
:100180000D6E0D2EFED70C2EFCD78280310E0D6E1B
:100190000D2EFED700000000948082A001D0FDD774
:1001A00082B001D0FDD782A001D0FDD7120004504B
:1001B000000A08E10550000A05E1FF0E006E7F0EFF
:1001C000016E57D00D6A096A086A01500010D8B450
:1001D000000C015005180A6E0ABE0D1E0B6A05AE12
:1001E00005D0041E051E042AD8B4052A01AE05D088
:1001F000001E011E002AD8B4012A015005100A6E03
:100200000ABE10D060DF0BB020D00DAE000C001E77
:10021000011E002AD8B4012A081E091E082AD8B4D3
:10022000092A000C05AE0DD001BE07D00150096EA1
:100230000050086E016A006AE8D7016A006A002A65
:10024000000C011E001E0B2ADDD7082AD8B4092A8B
:100250000450085CD8A4D9D70550095CD8A4D5D7D8
:10026000096A086A002AD8B4012A01AECED7000074
:10027000FF0C12000B6A0A6A096A00500402F4CFEC
:1002800009F0F3CF08F001500502F4CF0BF0F3CFE3
:100290000AF000500502F3500926F4500A22E86AD9
:1002A0000B2201500402F3500926F4500A22E86A96
:1002B0000B2208C000F009C001F00AC002F00BC018
:1002C00003F012000001766B026A080E025C1EE267
:1002D00082B001D0FDD7420E0D6E0D2EFED700006C
:1002E00082A012D002500708006E00C001F0010E7B
:1002F000006E015004E000360090FF0FFBD7005065
:10030000761382A001D0FDD7022ADFD776C000F095
:1003100012000900F5CFE6FF0006FBE10106F9E156
:100320001200959695929598959A959C959E839690
:100330008392839E839C839A839876DE75DE74DE37
:10034000838A838883866ADE83966EDE838666DE92
:1003500083966ADE838662DE839666DE8398838672
:100360005DDE839661DE838659DE8396839A838E73
:10037000838654DE839658DE839E838883864EDE92
:100380008396839883864ADE83964EDE838646DE96
:1003900083968388838642DE839646DE83988386AF
:1003A0003DDE8396838E838C838A8388838636DEC4
:1003B00083963ADE5E80120000016F6B400E7A6F0A
:1003C00043DE6F516D25E96E000E6E21EA6EEE5030
:1003D000990A0BE06F516D25E96E000E6E21EA6EF1
:1003E000EECF76F09CDE6F2BECD7020E7A6F2CDE10
:1003F0001200DBD00A0E046E000E056E6DC000F018
:100400006EC001F0D4DE300E002600C05FF00A0E90
:10041000046E000E056E6DC000F06EC001F0C7DE08
:1004200008C000F009C001F0300E00240001606F28
:10043000616B626B636BC1D00001800E6E19006E40
:10044000800E030A005C02E1E80E6D5D3CE3E80EFD
:10045000046E030E056E6DC000F06EC001F0A7DEE5
:10046000300E002600C05FF0640E046E000E056EB4
:100470006DC000F06EC001F09ADE0A0E046E000E30
:10048000056E95DE08C000F009C001F0300E0024B2
:100490000001606F0A0E046E000E056E6DC000F064
:1004A0006EC001F084DE0A0E046E000E056E7FDE63
:1004B00008C000F009C001F0300E00240001616F97
:1004C000626B636B71D0000E6E1902E1000E6D1944
:1004D00007E1300E5F6E606B616B626B636B64D0C3
:1004E000800E6E19006E800E005C02E1640E6D5D80
:1004F00024E20A0E046E000E056E6DC000F06EC0A0
:1005000001F055DE300E002600C05FF02E0E000117
:10051000606F0A0E046E000E056E6DC000F06EC0B6
:1005200001F045DE08C000F009C001F0300E0024E3
:100530000001616F626B636B37D0640E046E000E56
:10054000056E6DC000F06EC001F031DE300E002689
:1005500000C05FF00A0E046E000E056E6DC000F064
:100560006EC001F024DE0A0E046E000E056E1FDE62
:1005700008C000F009C001F0300E00240001606FD7
:100580002E0E616F0A0E046E000E056E6DC000F037
:100590006EC001F00CDE08C000F009C001F0300EA2
:1005A00000240001626F636B08D03550010AD8B493
:1005B00021D73550020AD8B43FD75F0E006E000E27
:1005C000016E120000016F6B6F516D25E96E000E18
:1005D0006E21EA6EEE520BE06F516D25E96E000E52
:1005E0006E21EA6EEECF76F09ADD6F2BEDD712001A
:1005F00049D1800E00016E19006E800E005C02E190
:100600000A0E6D5D0AE2300E6D25006E00C064F0CA
:10061000656B666B676B686B2AD0800E6E19006E17
:10062000800E005C02E10A0E6D5D21E30A0E046E8D
:10063000000E056E6DC000F06EC001F0B8DD300E2A
:10064000002600C064F00A0E046E000E056E6DC038
:1006500000F06EC001F0ABDD08C000F009C001F091
:10066000300E00240001656F666B676B686B12D1FA
:100670000001800E6E19006E800E005C02E1000E1B
:100680006D5D2DE3800E6E19006E800E005C02E140
:10069000640E6D5D24E20A0E046E000E056E6DC0E0
:1006A00000F06EC001F083DD300E002600C064F063
:1006B0002E0E0001656F0A0E046E000E056E6DC0F1
:1006C00000F06EC001F073DD08C000F009C001F059
:1006D000300E00240001666F676B686BD2D0800E0D
:1006E0006E19006E800E005C02E1640E6D5D38E3F1
:1006F000640E046E000E056E6DC000F06EC001F059
:1007000056DD300E002600C064F00A0E046E000EA6
:10071000056E6DC000F06EC001F049DD0A0E046E7A
:10072000000E056E44DD08C000F009C001F0300E77
:1007300000240001656F2E0E666F0A0E046E000E17
:10074000056E6DC000F06EC001F031DD08C000F034
:1007500009C001F0300E00240001676F686B91D072
:100760007F0E006E800E6E19005C02E16D519C08D8
:1007700046E32D0E646F6DC000F06EC001F0FF0EF9
:10078000046EFF0E056E76DD00C06FF001C070F0E4
:10079000640E046E000E056E6FC000F070C001F0B4
:1007A00006DD300E00240001656F0A0E046E000E97
:1007B000056E6FC000F070C001F0F9DC0A0E046E27
:1007C000000E056EF4DC08C000F009C001F0300E28
:1007D00000240001666F2E0E676F0A0E046E000E75
:1007E000056E6FC000F070C001F0E1DC08C000F0E1
:1007F00009C001F0300E00240001686F42D07F0E66
:10080000006E800E6E19005C02E16D519C0839E2A9
:10081000800E6E19006E800E005C02E1000E6D5DB0
:1008200030E22D0E646F6DC000F06EC001F0FF0E5F
:10083000046EFF0E056E1EDD00C06FF001C070F08B
:100840000A0E046E000E056E6FC000F070C001F05D
:10085000AEDC300E00240001656F2E0E666F0A0EAE
:10086000046E000E056E6FC000F070C001F09FDCDA
:1008700008C000F009C001F0300E00240001676FCD
:10088000686B08D03550010AD8B4B3D63550020A87
:10089000D8B4EED6640E006E000E016E12006BDC52
:1008A00011DD00C071F00EDD00C072F00BDD00C084
:1008B00073F008DD00C074F005DD00C075F0355040
:1008C000010A11E16DC0E1FF6EC0E2FF71C0E6FFF9
:1008D000000EE66E6FC0E1FF70C0E2FF73C0E6FF7E
:1008E000000EE66E21D03550020A1EE171C001F003
:1008F000006A72510012000E01126DC0E1FF6EC05D
:10090000E2FF00C0E6FF01C0E6FF73C001F0006A2D
:1009100074510012000E01126FC0E1FF70C0E2FFBF
:1009200000C0E6FF01C0E6FF6FC0E9FF70C0EAFF4C
:10093000EECF00F0EECF01F0000E0014026E015079
:10094000800B036E0350800A02E1000E021821E1C1
:100950006FC0E9FF70C0EAFF6FC0E1FF70C0E2FF47
:10096000FF0EE6167F0EE6166FC0E9FF70C0EAFFC5
:10097000EECF00F0EECF01F0FF0E046EFF0E056E1D
:1009800079DC6FC0E1FF70C0E2FF00C0E6FF01C08C
:10099000E6FF72517125006E016A000E012273514B
:1009A0000026000E012274510026000E0122FF0EC7
:1009B0000014026E01C003F0000E0316000E0318AF
:1009C00002E10250751905E1010E006E000E016E84
:1009D00002D0006A016A120010D0800E00016D6F13
:1009E0001AD0C00E6D6F17D0940E6D6F14D0D40E48
:1009F0006D6F11D0800E6D6F0ED000016D51010A28
:100A0000ECE06D51020AEDE06D51030AEDE06D512D
:100A1000040AEDE0EFD76E05006E6D51002600C0B0
:100A20006DF000C07AF024EC00F05E90716B7151B3
:100A30006F25E96E000E7021EA6EEE520CE07151E6
:100A40006F25E96E000E7021EA6EEECF76F08FEC26
:100A500000F0712BECD75E80120010D0800E0001E8
:100A60006D6F1AD0C00E6D6F17D0940E6D6F14D0CD
:100A7000D40E6D6F11D0800E6D6F0ED000016D51D0
:100A8000010AECE06D51020AEDE06D51030AEDE060
:100A90006D51040AEDE0EFD76E05006E6D51002632
:100AA00000C06DF05E8000C07AF024EC00F05E9033
:100AB0006FC07AF024EC00F05E8012006DC076F01A
:100AC0006EC077F02F0E0001786F000E796F95ECF5
:100AD00000F0000E011802E1000E001803E1010E03
:100AE000356E13D06DC076F06EC077F0360E000113
:100AF000786F000E796F95EC00F0000E011802E19E
:100B0000000E001802E1020E356E120035EC06F000
:100B100095948C9406DC010E00017A6F24EC00F0B1
:100B20000C0E7A6F24EC00F0150E6D6F000E6E6FD8
:100B300043DC010E6D6F010E6E6F260E6F6F000E9F
:100B4000706F4ADF010E6D6F060E6E6F6F6B85DF83
:100B5000020E6D6F010E6E6F3C0E6F6F000E706FA8
:100B60003BDF020E6D6F060E6E6F010E6F6F75DF4D
:100B70004C0E6D6F000E6E6FA1DF690E00016D6F80
:100B8000000E6E6F6B0E6F6F000E706F88DE005080
:100B900001102DE069C06DF06AC06EF02ADC010E14
:100BA00000016D6F090E6E6F00C06FF001C070F034
:100BB00013DF520E6D6F000E6E6F04DD6BC06DF0B3
:100BC0006CC06EF015DD020E00016D6F090E6E6FC8
:100BD00000C06FF001C070F0FFDEDF0E766F8FECAB
:100BE00000F0570E6D6F000E6E6FECDC09D0030E37
:100BF0006D6F010E6E6F450E6F6F000E706FECDE45
:100C0000330E0B6EBB0E0C6EDF0E0D6E0D2EFED76F
:100C10000C2EFCD70B2EFAD700000000AED7FFD762
:100C200004040E0A1111110E040E0A0A1F1F1F0ED2
:100C30009948756D6920203A2000444854313100AC
:100C40000044485432780054656D7020203A2000EA
:100C50004552524F522100444854327800252020FA
:100C6000200043202020202000FF10EE15F0490E28
:100C7000006E010E016E200EF66E0C0EF76E000E69
:100C8000F86E89EC01F01200FFFFFFFFFFFFFFFF8E
:020000040030CA
:0E000000240C1F1EFF8181FF0FC00FE00F4078
:00000001FF
